:020000040800F2
:100000000050002021470008DD0C0008E90C000822
:10001000EF0C0008F50C0008FB0C000800000000C5
:10002000000000000000000000000000010D0008BA
:100030000D0D000800000000190D0008250D000836
:1000400069470008350D000869470008694700083E
:10005000410D00084D0D0008694700086947000878
:10006000694700086947000869470008590D0008FA
:1000700069470008694700086947000869470008A0
:100080006947000869470008750D000869470008BE
:100090006947000869470008694700086947000880
:1000A000890D00089D0D0008B10D0008C50D000860
:1000B0006947000869470008694700086947000860
:1000C0006947000869470008694700086947000850
:1000D000694700086947000869470008D90D00080A
:1000E00069470008694700086947000800000000E8
:1000F0000000000000000000000000000000000000
:0C01000000000000000000005FF808F1A3
:10010C0010B5054C237833B9044B13B10448AFF345
:10011C0000800123237010BD70000020000000003F
:10012C00C450000808B5034B1BB103490348AFF397
:10013C00008008BD0000000074000020C4500008BE
:10014C0080B58CB000AF07F1200300221A605A6012
:10015C009A60DA6007F1140300221A605A609A6000
:10016C00B74B9B69B64A43F004039361B44B9B694C
:10017C0003F004033B613B69B14B9B69B04A43F00C
:10018C0008039361AE4B9B6903F00803FB60FB68AB
:10019C00AB4B9B69AA4A43F010039361A84B9B6934
:1001AC0003F01003BB60BB68A54B5B69A44A43F02A
:1001BC0001035361A24B5B6903F001037B607B6815
:1001CC009F4B9B699E4A43F4007393619C4B9B69C4
:1001DC0003F400733B603B6800220121994802F054
:1001EC00FFFC00220221974802F0FAFC00220421B5
:1001FC00944802F0F5FC00220821924802F0F0FC31
:10020C0000220121904802F0EBFC002202218E48D2
:10021C0002F0E6FC002204218B4802F0E1FC0022F3
:10022C000821894802F0DCFC00221021864802F0EB
:10023C00D7FC00222021844802F0D2FC002240216D
:10024C00814802F0CDFC002280217F4802F0C8FCDE
:10025C00002210217B4802F0C3FC002220217948A7
:10026C0002F0BEFC00220121784802F0B9FC002209
:10027C000221764802F0B4FC03237B6201233B622B
:10028C0007F1200319466F4802F026FB02233B625C
:10029C0007F1200319466B4802F01EFB04233B6256
:1002AC0007F120031946674802F016FB08233B624E
:1002BC0007F120031946634802F00EFB01233B6251
:1002CC0007F120031946604802F006FB02233B624B
:1002DC0007F1200319465C4802F0FEFA04233B6246
:1002EC0007F120031946584802F0F6FA08233B623E
:1002FC0007F120031946544802F0EEFA10233B6232
:10030C0007F120031946504802F0E6FA20233B621D
:10031C0007F1200319464C4802F0DEFA40233B62F9
:10032C0007F120031946484802F0D6FA80233B62B5
:10033C0007F120031946444802F0CEFA10233B6221
:10034C0007F1200319463F4802F0C6FA20233B620E
:10035C0007F1200319463B4802F0BEFA01233B6229
:10036C0007F120031946394802F0B6FA02233B6222
:10037C0007F120031946354802F0AEFA344B354AE2
:10038C001A60334B00225A60314B00229A60304B7A
:10039C008022DA602E4B4FF480721A612C4B4FF492
:1003AC0080625A612A4B00229A61294B0022DA6141
:1003BC00274801F085FE0346002B01D000F038FCE5
:1003CC00254B264A1A60244B4FF480729A60224BBC
:1003DC0000221A73204B00221A751F4B4FF4602217
:1003EC00DA611D4B00225A601B4B10221A611A480D
:1003FC0001F0BCF80346002B01D000F019FC0123DE
:10040C00FB610A237B610323BB6107F114031946CB
:10041C00114801F053FB0346002B01D000F008FCFF
:10042C000B237B610423BB6107F1140319460A48B3
:10043C0001F044FB0346002B12D000F0F9FB0FE057
:10044C00001002400010014000080140000C014067
:10045C00BC000020080002408C0000200024014059
:10046C000C237B610523BB6107F114031946724809
:10047C0001F024FB0346002B01D000F0D9FB0D2327
:10048C007B610623BB6107F1140319466A4801F02E
:10049C0015FB0346002B01D000F0CAFB00237B6147
:1004AC000723BB6107F114031946634801F006FBEF
:1004BC000346002B01D000F0BBFB01237B6108231A
:1004CC00BB6107F1140319465B4801F0F7FA0346C8
:1004DC00002B01D000F0ACFB02237B610923BB6134
:1004EC0007F114031946544801F0E8FA0346002BAF
:1004FC0001D000F09DFB03237B610A23BB6107F154
:10050C00140319464C4801F0D9FA0346002B01D0CC
:10051C0000F08EFB04237B610B23BB6107F11403FA
:10052C001946454801F0CAFA0346002B01D000F0E9
:10053C007FFB05237B610C23BB6107F11403194678
:10054C003D4801F0BBFA0346002B01D000F070FBD4
:10055C0006237B610D23BB6107F114031946364852
:10056C0001F0ACFA0346002B01D000F061FB07232D
:10057C007B610E23BB6107F1140319462E4801F071
:10058C009DFA0346002B01D000F052FB0E237B6139
:10059C000F23BB6107F114031946274801F08EFAAB
:1005AC000346002B01D000F043FB0F237B6110238B
:1005BC00BB6107F1140319461F4801F07FFA03468B
:1005CC00002B01D000F034FB08237B610123BB61BD
:1005DC0007F114031946184801F070FA0346002B72
:1005EC0001D000F025FB09237B610223BB6107F1DD
:1005FC0014031946104801F061FA0346002B01D090
:10060C0000F016FB0C4B0D4A1A620C4B0A4A5A624C
:10061C0000220B210B2001F01CFD0B2001F035FDFD
:10062C0000220A21122001F014FD122001F02DFDF0
:10063C0000BF3037BD4680BD8C000020BC000020C0
:10064C0080B586B000AF07F1080300221A605A602B
:10065C009A60DA60174B9B69164A43F00803936162
:10066C00144B9B6903F008037B607B680022082114
:10067C00114802F0B5FA002210210F4802F0B0FA2E
:10068C000123FB6000233B6102237B610823BB60D9
:10069C0007F108031946084802F01EF91023BB6045
:1006AC0007F108031946044802F016F900BF183781
:1006BC00BD4680BD00100240000C014080B500AF6B
:1006CC0001221021024802F08BFA00BF80BD00BF4E
:1006DC00000C014080B500AF00221021024802F04E
:1006EC007FFA00BF80BD00BF000C014080B500AF99
:1006FC000821024802F08CFA00BF80BD000C0140BA
:10070C0080B586B000AF07F1080300221A605A606A
:10071C009A60DA60834B9B69824A43F008039361C9
:10072C00804B9B6903F008037B607B687D4B9B6966
:10073C007C4A43F0100393617A4B9B6903F01003DE
:10074C003B603B6800222021774802F049FA0022E6
:10075C004021754802F044FA00228021724802F0D0
:10076C003FFA00224FF480716F4802F039FA0022F0
:10077C004FF400716C4802F033FA00224FF4005130
:10078C006A4802F02DFA00224FF48041674802F0CB
:10079C0027FA00224FF40041644802F021FA0022AB
:1007AC004FF48051604802F01BFA00224FF40051C4
:1007BC005D4802F015FA00224FF480415A4802F0CD
:1007CC000FFA00224FF40041574802F009FA0022B8
:1007DC004021564802F004FA00228021534802F0CE
:1007EC00FFF900224FF48071504802F0F9F9002211
:1007FC004FF400714D4802F0F3F90123FB60002324
:10080C003B6103237B612023BB6007F1080319467E
:10081C00454802F061F84023BB6007F10803194614
:10082C00414802F059F88023BB6007F108031946D0
:10083C003D4802F051F84FF48073BB6007F1080398
:10084C001946394802F048F84FF40073BB6007F1C1
:10085C0008031946344802F03FF84FF40053BB60CC
:10086C0007F108031946314802F036F84FF480437B
:10087C00BB6007F1080319462C4802F02DF84FF421
:10088C000043BB6007F108031946284802F024F81E
:10089C004FF48053BB6007F108031946224802F05D
:1008AC001BF84FF40053BB6007F1080319461E48B0
:1008BC0002F012F84FF48043BB6007F108031946AD
:1008CC00194802F009F84FF40043BB6007F1080324
:1008DC001946154802F000F84023BB6007F10803E5
:1008EC001946124801F0F8FF8023BB6007F108039A
:1008FC0019460E4801F0F0FF4FF48073BB6007F10E
:10090C0008031946094801F0E7FF4FF40073BB6078
:10091C0007F108031946054801F0DEFF00BF183740
:10092C00BD4680BD00100240000C0140001001408B
:10093C0080B500AF002220212D4802F051F9002291
:10094C0040212B4802F04CF900228021284802F06B
:10095C0047F900224FF48071254802F041F900223A
:10096C004FF40071224802F03BF900224FF4005181
:10097C00204802F035F900224FF480411D4802F066
:10098C002FF900224FF400411A4802F029F90022F5
:10099C004FF48051164802F023F900224FF4005115
:1009AC00134802F01DF900224FF48041104802F068
:1009BC0017F900224FF400410D4802F011F9002202
:1009CC0040210C4802F00CF900228021094802F069
:1009DC0007F900224FF48071064802F001F9002259
:1009EC004FF40071034802F0FBF800BF80BD00BF5C
:1009FC00000C01400010014080B582B000AF0346EE
:100A0C00FB71FFF795FFFB79013B0F2B00F28F80F9
:100A1C0001A252F823F000BF650A0008710A000811
:100A2C007D0A0008890A0008970A0008A50A000830
:100A3C00B30A0008C10A0008CF0A0008DD0A000842
:100A4C00EB0A0008F90A0008070B0008130B000852
:100A5C001F0B00082D0B000801222021364802F044
:100A6C00BFF865E001224021334802F0B9F85FE09D
:100A7C0001228021304802F0B3F859E001224FF4F2
:100A8C0080712D4802F0ACF852E001224FF4007155
:100A9C00294802F0A5F84BE001224FF400512748F9
:100AAC0002F09EF844E001224FF48041234802F00A
:100ABC0097F83DE001224FF40041204802F090F8F5
:100ACC0036E001224FF480511B4802F089F82FE0E8
:100ADC0001224FF40051184802F082F828E001225C
:100AEC004FF48041144802F07BF821E001224FF4CE
:100AFC000041114802F074F81AE0012240210F481D
:100B0C0002F06EF814E0012280210C4802F068F823
:100B1C000EE001224FF48071084802F061F807E002
:100B2C0001224FF40071054802F05AF800E000BFB2
:100B3C0000BF0837BD4680BD000C014000100140CD
:100B4C0080B500AF00F08CFC00F016F801F012FE3E
:100B5C00FFF776FDFFF7D4FDFFF7F2FA00F0C2FACB
:100B6C0000F070F9034802F055FD322000F0DAFC79
:100B7C00FBE700BF0401002080B594B000AF07F183
:100B8C00280328220021184603F014FE07F1140351
:100B9C0000221A605A609A60DA601A613B1D0022CA
:100BAC001A605A609A60DA600923BB624FF4803392
:100BBC00FB6200233B630123BB6301233B640223E1
:100BCC007B644FF48033BB644FF40023FB6407F168
:100BDC002803184602F04EF80346002B01D000F013
:100BEC0027F80F237B610223BB610023FB610023E9
:100BFC003B6200237B6207F114030021184602F0CC
:100C0C00BBFA0346002B01D000F012F802237B60E4
:100C1C004FF48043FB603B1D184602F045FC034635
:100C2C00002B01D000F004F800BF5037BD4680BD4A
:100C3C0080B400AF00BFBD4680BC704780B584B0A7
:100C4C0000AF214B9B69204A43F0010393611E4B7B
:100C5C009B6903F00103BB60BB681B4BDB691A4A41
:100C6C0043F08053D361184BDB6903F080537B60F6
:100C7C007B6800220021012001F0EBF9012001F03A
:100C8C0004FA00220021042001F0E3F9042001F011
:100C9C00FCF900220021052001F0DBF9052001F010
:100CAC00F4F90A4B5B68FB60FB6823F0E063FB60C4
:100CBC00FB6843F00073FB60044AFB68536000BFA1
:100CCC001037BD4680BD00BF00100240000001403F
:100CDC0080B400AF00BFBD4680BC704780B400AF8D
:100CEC00FEE780B400AFFEE780B400AFFEE780B44F
:100CFC0000AFFEE780B400AF00BFBD4680BC7047BC
:100D0C0080B400AF00BFBD4680BC704780B400AF5C
:100D1C0000BFBD4680BC704780B500AF00F0E6FB5D
:100D2C0000F0F4FA00BF80BD80B500AF01F08AFF7F
:100D3C0000BF80BD80B500AF01F026FC00BF80BDB8
:100D4C0080B400AF00BFBD4680BC704780B500AF1B
:100D5C00034801F0E5FA034B01221A7000BF80BD75
:100D6C00BC0000204C01002080B500AF024800F010
:100D7C00BDFD00BF80BD00BF8C00002080B500AF62
:100D8C00024802F0F1FC00BF80BD00BF040100204E
:100D9C0080B500AF024802F0E7FC00BF80BD00BF89
:100DAC000401002080B500AF024802F0DDFC00BF5A
:100DBC0080BD00BF0401002080B500AF024802F0E6
:100DCC00D3FC00BF80BD00BF0401002080B500AF84
:100DDC00024803F0E7F900BF80BD00BF780A00208D
:100DEC0080B584B000AF7860114B1B68002B02D12A
:100DFC000F4B104A1A600E4B1B68FB600C4B1A68A9
:100E0C007B6813446A46934207D903F0A9FC034656
:100E1C000C221A604FF0FF3306E0054B1A687B6812
:100E2C001344034A1360FB6818461037BD4680BD57
:100E3C0000010020000C002080B400AF00BFBD46B4
:100E4C0080BC704780B592B000AF07F14003002220
:100E5C001A605A6007F1240300221A605A609A60E3
:100E6C00DA601A615A619A613B1D202200211846F2
:100E7C0003F0A0FC3B4B9B693A4A43F4006393613B
:100E8C00384B9B6903F400633B603B68364B374A35
:100E9C001A60354B47F6FF425A60334B00229A607A
:100EAC00314B6322DA60304B00221A612E4B002248
:100EBC005A612D4B00229A612B4802F0FDFB034630
:100ECC00002B01D0FFF7B4FE00233B6400237B64AE
:100EDC0007F140031946244802F0B4FF0346002BE7
:100EEC0001D0FFF7A5FE00237B620023BB62002329
:100EFC00FB6200233B6300237B630023BB63002363
:100F0C00FB6307F1240300221946174802F034FD55
:100F1C000346002B01D0FFF78BFE00237B600023E0
:100F2C00BB600023FB6000233B6100237B614FF41B
:100F3C000053BB6100233B623B1D19460A4802F07B
:100F4C00DFFF0346002B01D0FFF772FE00220F21BA
:100F5C00192001F07EF8192001F097F800BF4837EE
:100F6C00BD4680BD0010024004010020002C014051
:100F7C0080B584B000AF78607B68264A934245D137
:100F8C0000F05AF80023FB6031E00023BB601BE04B
:100F9C00FB681A01BB681A4413469B0013441E4A93
:100FAC009818FB681A01BB6813441C4A1278114646
:100FBC001B4A5B000B4432F813301A46194903F0F4
:100FCC0001FCBB680133BB60BB680F2BE0DDFB6829
:100FDC005A1C13469B0013441B01013B0E4A13443D
:100FEC001149184603F0EEFBFB680133FB60FB680C
:100FFC000F2BCADD0D490E4803F0E4FB40F20452FE
:10100C0005490C4803F035F8FFF770FB00BF1037AB
:10101C00BD4680BD04010020740500207005002031
:10102C0070010020DC500008E4500008E850000873
:10103C00740A0020780A002080B584B000AF002329
:10104C00FB6033E0FB68DBB20133DBB21846FFF721
:10105C00D3FC10221E491F4800F06AFB00E000BFC1
:10106C001D4B1B78002BFAD01B4B00221A7000234F
:10107C00BB6013E0164ABB6832F81330FB80FB6888
:10108C001A01BB681344154A127815495B001344C6
:10109C00FA8821F81320BB680133BB60BB680F2BA7
:1010AC00E8DDFFF745FCFB680133FB60FB680F2BA9
:1010BC00C8DD0A4B1B780133002B03F00103B8BFCA
:1010CC005B42DAB2054B1A7000BF1037BD4680BDCB
:1010DC00500100208C0000204C01002070050020E5
:1010EC007001002080B588B000AF07F10C0300221E
:1010FC001A605A609A60DA603C4BDB693B4A43F4F5
:10110C008023D361394BDB6903F48023BB60BB685C
:10111C00364B9B69354A43F010039361334B9B6903
:10112C0003F010037B607B684FF48063FB60022349
:10113C003B610323BB6107F10C0319462C4801F0FA
:10114C00CBFB4FF40063FB6000233B6100237B610E
:10115C0007F10C031946264801F0BEFB254B5B68D2
:10116C00FB61FB6923F03003FB61FB6943F0E06337
:10117C00FB61FB6943F01003FB611E4AFB69536082
:10118C0000220021272000F064FF272000F07DFFC3
:10119C00194B1A4A1A60184B4FF4E1325A60164B2D
:1011AC0000229A60144B0022DA60134B00221A6161
:1011BC00114B0C225A61104B00229A610E4B0022EB
:1011CC00DA610D4802F0FFFE0346002B01D0FFF759
:1011DC002FFD01220A49084802F08FFF094B00221B
:1011EC001A7000BF2037BD4680BD00BF0010024002
:1011FC000010014000000140780A00200048004027
:10120C00C00B0020B90A002080B582B000AF786016
:10121C007B682E4A934254D1FFF750FA2C4B1B7823
:10122C00022B10D12B4B1B78002B0CD1294B0122FC
:10123C001A70294B00221A80284B00221A80284B46
:10124C0000221A7036E0234B1B78012B32D1234B32
:10125C001B881A461E4B1978224B99541F4B1B881E
:10126C0001339AB21D4B1A801C4B1B88022B07D1E1
:10127C00174B1B789BB204339AB2174B1A8019E0A8
:10128C00164B1A88144B1B889A4213D1124B1B888D
:10129C00DBB21946134800F0B9F80346002B06D10F
:1012AC000D4B1B88DBB219460E4800F047F8094B72
:1012BC0000221A7001220649044802F01EFFFFF7B3
:1012CC0009FA00BF0837BD4680BD00BF780A002070
:1012DC00C00B0020B90A0020C20B0020C40B002058
:1012EC00B80A0020BC0A002080B500AF044B0022D5
:1012FC001A7001220349044802F0FFFE00BF80BDB2
:10130C00B90A0020C00B0020780A002080B500AF7D
:10131C00084B1B78002B0BD0074B1B780133DAB230
:10132C00054B1A70044B1B78642B01D9FFF7DCFFBB
:10133C0000BF80BDB90A0020B80A002080B483B079
:10134C0000AF78600B46FB707B681B78113B282B39
:10135C0054D801A252F823F009140008091400080B
:10136C0009140008091400080914000809140008DD
:10137C0009140008091400080914000809140008CD
:10138C0009140008091400080914000809140008BD
:10139C0009140008091400080914000809140008AD
:1013AC00091400080914000809140008091400089D
:1013BC00091400080914000809140008091400088D
:1013CC00091400080914000809140008091400087D
:1013DC00091400080914000809140008091400086D
:1013EC00091400080914000809140008091400085D
:1013FC0009140008091400080914000800BF002390
:10140C0018460C37BD4680BC704700BF80B485B011
:10141C0000AF78600B46FB704FF6FF73FB8111E059
:10142C007B685A1C7A601A78FB89DBB253407B7359
:10143C00FB891B0AFB817B7B084A32F81320FB8952
:10144C005340FB81FB785A1EFA70002BE8D1FB89C4
:10145C0018461437BD4680BC704700BF14510008B5
:10146C0080B500AF084B1B68074A43F010031360AC
:10147C00032000F0E3FD002000F008F8FFF7DEFB8E
:10148C000023184680BD00BF0020024080B582B00A
:10149C0000AF7860124B1A68124B1B7819464FF448
:1014AC007A73B3FBF1F3B2FBF3F3184600F0FBFDD8
:1014BC000346002B01D001230EE07B680F2B0AD8CA
:1014CC00002279684FF0FF3000F0C3FD064A7B68BC
:1014DC001360002300E0012318460837BD4680BD89
:1014EC0000000020080000200400002080B400AFA1
:1014FC00054B1B781A46054B1B681344034A1360B3
:10150C0000BFBD4680BC704708000020C80B0020FF
:10151C0080B400AF024B1B681846BD4680BC7047B8
:10152C00C80B002080B584B000AF7860FFF7F0FFE7
:10153C00B8607B68FB60FB68B3F1FF3F05D00A4BDA
:10154C001B781A46FB681344FB6000BFFFF7E0FFF3
:10155C000246BB68D31AFA689A42F7D800BF00BF9C
:10156C001037BD4680BD00BF0800002080B586B096
:10157C0000AF78600023FB7500233B610023BB6048
:10158C000023FB607B68002B01D10123BEE07B684C
:10159C009B68002B7B689B6A002B09D17B6800221F
:1015AC00DA627B68002283F82420786800F0B6F8B1
:1015BC00786800F0CDFB0346FB757B689B6A03F0F3
:1015CC001003002B40F09980FB7D002B40F09580A0
:1015DC007B689B6A23F4885323F0020343F00202D6
:1015EC007B689A627B685A687B68DB691A437B6804
:1015FC001B7B5B001343BA681343BB607B689B681F
:10160C00B3F5807F03D07B689B68012B02D14FF42C
:10161C00807300E000233A6913433B617B681B7DB8
:10162C00012B19D17B681B7B002B09D17B689B6933
:10163C00013B5A033B69134343F400633B610BE0EA
:10164C007B689B6A43F020027B689A627B68DB6A4A
:10165C0043F001027B68DA627B681B685B6823F4E9
:10166C0069417B681B683A690A435A607B681B684E
:10167C009A68284B13407A681268B9680B439360D8
:10168C007B689B68B3F5807F03D07B689B68012BDC
:10169C0004D17B681B69013B1B05FB607B681B68E5
:1016AC00DB6A23F470017B681B68FA680A43DA6210
:1016BC007B681B689A68184B1340BA689A420BD126
:1016CC007B680022DA627B689B6A23F0030343F099
:1016DC0001027B689A6218E07B689B6A23F0120314
:1016EC0043F010027B689A627B68DB6A43F001026C
:1016FC007B68DA620123FB7507E07B689B6A43F029
:10170C0010027B689A620123FB75FB7D1846183723
:10171C00BD4680BDFDF7E1FFFE0E1FFF80B483B018
:10172C0000AF786000BF0C37BD4680BC704700002E
:10173C0080B586B000AFF860B9607A600023FB75A5
:10174C00FB681B68644A934204D0FB681B68634ABD
:10175C00934206D1604B5B6803F47023002B40F07E
:10176C00B380FB6893F82430012B01D10223AEE047
:10177C00FB68012283F82420F86800F097FA0346EE
:10178C00FB75FB7D002B40F09A80FB689B6A23F471
:10179C00706323F0010343F48072FB689A62FB6868
:1017AC001B684E4A934205D14B4B5B6803F4702384
:1017BC00002B15D1FB689B6A23F48012FB689A629C
:1017CC00FB681B685B6803F48063002B26D0FB6806
:1017DC009B6A23F4405343F48052FB689A621DE0E9
:1017EC00FB689B6A43F48012FB689A62FB681B6877
:1017FC00394A934204D0FB681B68384A93420DD196
:10180C00354B5B6803F48063002B07D0FB689B6A45
:10181C0023F4405343F48052FB689A62FB689B6A42
:10182C0003F48053002B06D0FB68DB6A23F006021E
:10183C00FB68DA6202E0FB680022DA62FB680022D5
:10184C0083F82420FB681B6A254A9A62FB681B6A92
:10185C00244ADA62FB681B6A234A1A63FB681B681A
:10186C006FF002021A60FB681B689A68FB681B68C1
:10187C0042F480729A60FB68186AFB681B684C33F0
:10188C001946BA687B6800F075FCFB681B689B689E
:10189C0003F46023B3F5602F08D1FB681B689A68CA
:1018AC00FB681B6842F4A0029A600FE0FB681B689F
:1018BC009A68FB681B6842F480129A6006E0FB6829
:1018CC00002283F8242001E00123FB75FB7D1846E0
:1018DC001837BD4680BD00BF0024014000280140E0
:1018EC00D11D00084D1E0008691E000880B582B08D
:1018FC0000AF78607B681B685B6803F02003202BCB
:10190C0040D17B681B681B6803F00203022B39D1A2
:10191C007B689B6A03F01003002B05D17B689B6AE4
:10192C0043F400727B689A627B681B689B6803F4C3
:10193C006023B3F5602F1DD17B681B7B002B19D165
:10194C007B681B685A687B681B6822F020025A600F
:10195C007B689B6A23F480727B689A627B689B6AC3
:10196C0003F48053002B05D17B689B6A43F0010282
:10197C007B689A62786800F07CF87B681B686FF073
:10198C0012021A607B681B685B6803F08003802B73
:10199C004FD17B681B681B6803F00403042B48D1F0
:1019AC007B689B6A03F01003002B05D17B689B6A54
:1019BC0043F400527B689A627B681B689B6803F453
:1019CC00E043B3F5E04F12D07B681B685B6803F40F
:1019DC008063002B25D17B681B689B6803F4602314
:1019EC00B3F5602F1DD17B681B7B002B19D17B6855
:1019FC001B685A687B681B6822F080025A607B68FF
:101A0C009B6A23F480527B689A627B689B6A03F41E
:101A1C008073002B05D17B689B6A43F001027B68C5
:101A2C009A62786800F034FA7B681B686FF00C02DD
:101A3C001A607B681B685B6803F04003402B14D171
:101A4C007B681B681B6803F00103012B0DD17B68BD
:101A5C009B6A43F480327B689A62786800F01BF8CA
:101A6C007B681B686FF001021A6000BF0837BD4627
:101A7C0080BD80B483B000AF786000BF0C37BD462A
:101A8C0080BC704780B483B000AF786000BF0C3767
:101A9C00BD4680BC704780B483B000AF786000BF97
:101AAC000C37BD4680BC704780B483B000AF786003
:101ABC0000BF0C37BD4680BC7047000080B485B0B9
:101ACC0000AF786039600023FB730023BB607B6838
:101ADC0093F82430012B01D10223DCE07B68012236
:101AEC0083F824203B685B68062B1CD87B681B683A
:101AFC00596B3B685A6813469B001344053B1F22E5
:101B0C0002FA03F3DB4319403B6818683B685A68D8
:101B1C0013469B001344053B00FA03F27B681B68D9
:101B2C000A435A633CE03B685B680C2B1CD87B680F
:101B3C001B68196B3B685A6813469B001344233B84
:101B4C001F2202FA03F3DB4319403B6818683B6819
:101B5C005A6813469B001344233B00FA03F27B683C
:101B6C001B680A431A631BE07B681B68D96A3B68D5
:101B7C005A6813469B001344413B1F2202FA03F39D
:101B8C00DB4319403B6818683B685A6813469B0056
:101B9C001344413B00FA03F27B681B680A43DA6288
:101BAC003B681B68092B1CD97B681B68D9683B6890
:101BBC001A6813465B0013441E3B072202FA03F318
:101BCC00DB4319403B6898683B681A6813465B0016
:101BDC0013441E3B00FA03F27B681B680A43DA606D
:101BEC0019E07B681B6819693B681A6813465B002F
:101BFC001344072202FA03F3DB4319403B6898684D
:101C0C003B681A6813465B00134400FA03F27B68C6
:101C1C001B680A431A613B681B68102B03D03B6896
:101C2C001B68112B32D17B681B681D4A934225D14E
:101C3C007B681B689B6803F40003002B26D17B6830
:101C4C001B689A687B681B6842F400029A603B68C8
:101C5C001B68102B1AD1134B1B68134AA2FB0323CE
:101C6C009A0C13469B0013445B00BB6002E0BB68FC
:101C7C00013BBB60BB68002BF9D107E07B689B6A1A
:101C8C0043F020027B689A620123FB737B6800227D
:101C9C0083F82420FB7B18461437BD4680BC704764
:101CAC00002401400000002083DE1B4380B584B07B
:101CBC0000AF78600023FB600023BB607B681B686F
:101CCC009B6803F00103012B39D07B681B689A6871
:101CDC007B681B6842F001029A601B4B1B681B4A15
:101CEC00A2FB03239B0CBB6002E0BB68013BBB6007
:101CFC00BB68002BF9D1FFF70BFCF86018E0FFF77D
:101D0C0007FC0246FB68D31A022B11D97B689B6A2D
:101D1C0043F010027B689A627B68DB6A43F0010235
:101D2C007B68DA627B68002283F82420012307E0B9
:101D3C007B681B689B6803F00103012BDFD1002338
:101D4C0018461037BD4680BD0000002083DE1B43C3
:101D5C0080B584B000AF78600023FB607B681B68A3
:101D6C009B6803F00103012B27D17B681B689A68E1
:101D7C007B681B6822F001029A60FFF7C9FBF860D0
:101D8C0014E0FFF7C5FB0246FB68D31A022B0DD9F2
:101D9C007B689B6A43F010027B689A627B68DB6A03
:101DAC0043F001027B68DA62012307E07B681B6861
:101DBC009B6803F00103012BE3D000231846103776
:101DCC00BD4680BD80B584B000AF78607B685B6A2F
:101DDC00FB60FB689B6A03F05003002B27D1FB6868
:101DEC009B6A43F40072FB689A62FB681B689B68F1
:101DFC0003F46023B3F5602F15D1FB681B7B002B1C
:101E0C0011D1FB689B6A23F48072FB689A62FB68B1
:101E1C009B6A03F48053002B05D1FB689B6A43F04B
:101E2C000102FB689A62F868FFF723FE04E0FB6886
:101E3C001B6A1B6B7868984700BF1037BD4680BD86
:101E4C0080B584B000AF78607B685B6AFB60F86833
:101E5C00FFF718FE00BF1037BD4680BD80B584B0BB
:101E6C0000AF78607B685B6AFB60FB689B6A43F041
:101E7C004002FB689A62FB68DB6A43F00402FB6871
:101E8C00DA62F868FFF710FE00BF1037BD4680BD60
:101E9C0080B483B000AF786000BF0C37BD4680BC07
:101EAC007047000080B485B000AF78607B6803F0A9
:101EBC000703FB600C4BDB68BB60BA684FF6FF0393
:101ECC001340BB60FB681A02BB68134343F0BF634B
:101EDC0043F40033BB60044ABB68D36000BF1437C3
:101EEC00BD4680BC704700BF00ED00E080B400AF81
:101EFC00044BDB681B0A03F007031846BD4680BC85
:101F0C00704700BF00ED00E080B483B000AF034623
:101F1C00FB7197F90730002B0BDBFB7903F01F02E9
:101F2C00064997F907305B09012000FA02F241F8E3
:101F3C00232000BF0C37BD4680BC704700E100E099
:101F4C0080B483B000AF03463960FB7197F907305A
:101F5C00002B0ADB3B68DAB20C4997F90730120107
:101F6C00D2B20B4483F800230AE03B68DAB208498A
:101F7C00FB7903F00F03043B1201D2B20B441A7627
:101F8C0000BF0C37BD4680BC704700BF00E100E0CD
:101F9C0000ED00E080B489B000AFF860B9607A6001
:101FAC00FB6803F00703FB61FB69C3F10703042B18
:101FBC0028BF0423BB61FB690433062B02D9FB69E0
:101FCC00033B00E000237B614FF0FF32BB6902FA58
:101FDC0003F3DA43BB681A407B699A404FF0FF3138
:101FEC007B6901FA03F3D9437B680B401343184612
:101FFC002437BD4680BC704780B582B000AF786096
:10200C007B68013BB3F1807F01D301230FE00A4AC7
:10201C007B68013B53600F214FF0FF30FFF790FFBF
:10202C00054B00229A60044B07221A6000231846C5
:10203C000837BD4680BD00BF10E000E080B582B01F
:10204C0000AF78607868FFF72DFF00BF0837BD46FA
:10205C0080BD80B586B000AF0346B9607A60FB7373
:10206C0000237B61FFF742FF78617A68B968786971
:10207C00FFF790FF024697F90F3011461846FFF70D
:10208C005FFF00BF1837BD4680BD80B582B000AF82
:10209C000346FB7197F907301846FFF735FF00BF71
:1020AC000837BD4680BD80B582B000AF78607868D7
:1020BC00FFF7A2FF034618460837BD4680BD000057
:1020CC0080B485B000AF78600023FB607B68002B88
:1020DC0001D1012343E07B681B681A46224B134451
:1020EC00224AA2FB03231B099A007B681A647B68B3
:1020FC001F4ADA637B68022283F821207B681B6805
:10210C001B68FB60FB6823F47F5323F03003FB60F8
:10211C007B685A687B689B681A437B68DB681A4348
:10212C007B681B691A437B685B691A437B689B69F4
:10213C001A437B68DB691343FA681343FB607B68C3
:10214C001B68FA681A607B6800229A637B6801221C
:10215C0083F821207B68002283F820200023184676
:10216C001437BD4680BC7047F8FFFDBFCDCCCCCC3E
:10217C000000024080B586B000AFF860B9607A60AC
:10218C003B600023FB75FB6893F82030012B01D1D9
:10219C0002234AE0FB68012283F82020FB6893F8B5
:1021AC002130012B3AD1FB68022283F82120FB68F5
:1021BC0000229A63FB681B681A68FB681B6822F094
:1021CC0001021A603B687A68B968F86800F0AEF9E9
:1021DC00FB68DB6A002B08D0FB681B681A68FB687D
:1021EC001B6842F00E021A600FE0FB681B681A684D
:1021FC00FB681B6822F004021A60FB681B681A68F3
:10220C00FB681B6842F00A021A60FB681B681A68BC
:10221C00FB681B6842F001021A6005E0FB680022B3
:10222C0083F820200223FB75FB7D18461837BD462A
:10223C0080BD000080B584B000AF78600023FB73D4
:10224C007B6893F82130022B05D07B6804229A63BB
:10225C000123FB7351E07B681B681A687B681B6861
:10226C0022F00E021A607B681B681A687B681B6878
:10227C0022F001021A607B681B68224A934229D023
:10228C007B681B68204A934222D07B681B681F4ADC
:10229C0093421AD07B681B681D4A934212D07B680C
:1022AC001B681C4A93420AD07B681B681A4A9342EB
:1022BC0002D14FF480130EE04FF080730BE04FF41B
:1022CC00803308E04FF4805305E04FF4807302E054
:1022DC00102300E00123114A53607B68012283F82C
:1022EC0021207B68002283F820207B685B6B002B0D
:1022FC0003D07B685B6B78689847FB7B184610377C
:10230C00BD4680BD080002401C0002403000024067
:10231C0044000240580002406C00024000000240A1
:10232C0080B584B000AF78607B68DB6B1B68FB60AA
:10233C007B681B681B68BB607B681B6C04229A4023
:10234C00FB681340002B4FD0BB6803F00403002B39
:10235C004AD07B681B681B6803F02003002B07D155
:10236C007B681B681A687B681B6822F004021A6081
:10237C007B681B68664A934229D07B681B68654A58
:10238C00934222D07B681B68634A93421AD07B68C5
:10239C001B68624A934212D07B681B68604A934266
:1023AC000AD07B681B685F4A934202D14FF48003CA
:1023BC000EE04FF080630BE04FF4802308E04FF405
:1023CC00804305E04FF4806302E0402300E00423E7
:1023DC00554A53607B68DB6A002B00F094807B6865
:1023EC00DB6A786898478EE07B681B6C02229A4007
:1023FC00FB681340002B56D0BB6803F00203002B84
:10240C0051D07B681B681B6803F02003002B0BD199
:10241C007B681B681A687B681B6822F00A021A60CA
:10242C007B68012283F821207B681B68384A934221
:10243C0029D07B681B68374A934222D07B681B6883
:10244C00354A93421AD07B681B68344A934212D0A7
:10245C007B681B68324A93420AD07B681B68314AFE
:10246C00934202D14FF400130EE04FF000730BE0D7
:10247C004FF4003308E04FF4005305E04FF40073C1
:10248C0002E0202300E00223274A53607B680022ED
:10249C0083F820207B689B6A002B34D07B689B6A76
:1024AC00786898472FE07B681B6C08229A40FB6881
:1024BC001340002B28D0BB6803F00803002B23D05B
:1024CC007B681B681A687B681B6822F00E021A6016
:1024DC007B681A6C7B68DB6B012101FA02F25A6093
:1024EC007B6801229A637B68012283F821207B6838
:1024FC00002283F820207B681B6B002B04D07B68A8
:10250C001B6B7868984700BF00BF1037BD4680BD75
:10251C00080002401C00024030000240440002400F
:10252C00580002406C0002400000024080B485B0AC
:10253C0000AFF860B9607A603B60FB681A6CFB68AE
:10254C00DB6B012101FA02F25A60FB681B683A68E6
:10255C005A60FB685B68102B08D1FB681B687A68B3
:10256C009A60FB681B68BA68DA6007E0FB681B6856
:10257C00BA689A60FB681B687A68DA6000BF143727
:10258C00BD4680BC7047000080B582B000AF002310
:10259C007B606D4BDB6803F01003002B05D16A4B9D
:1025AC00DB6803F00403002B0ED0684B9B687B6048
:1025BC00664B4FF0FF329A6000F01EF9786800F01D
:1025CC00D0F8624B00221A705F4BDB6803F02003DB
:1025DC00002B00F0A0805C4B2022DA605B4B1B7858
:1025EC00DBB2002B00F09780584B1B78DBB2012B31
:1025FC002DD1564B5B68013B544A5360534B5B687F
:10260C00002B17D0514B9B687B60786800F0A0F8CA
:10261C004E4B9B6803F580637B604C4A7B689360F0
:10262C00494B1B69484A23F002031361786800F098
:10263C0033F970E04FF0FF337B60444A7B68936062
:10264C00424B00221A70786800F082F863E03F4B2E
:10265C001B78DBB2022B0CD13B4B1B693A4A23F0A3
:10266C0004031361002000F073F8384B00221A7039
:10267C0051E0364B5B68013B344A5360334B5B682B
:10268C00002B24D0314B9B680233304A93602F4B84
:10269C009B687B602D4BD3E904014FF000024FF097
:1026AC000003020C42EA01420B0C2849C1E9042345
:1026BC00254B1B69244A23F001031361234BD3E9F7
:1026CC00042393B21946786800F07AF823E01F4B84
:1026DC001B78DBB2032B05D11C4B9B68184600F012
:1026EC0037F811E0194B1B78DBB2042B06D1174BD2
:1026FC009B68023B184600F02BF805E0134B9B68D7
:10270C00063B184600F024F8104B4FF0FF329A604D
:10271C000E4B00221A700D4B1B78DBB2002B0ED126
:10272C00094B1B69084A23F007031361064B1B690D
:10273C00054A23F4A0531361044B00221A7600BF00
:10274C000837BD4680BD00BF00200240D00B0020E2
:10275C0080B483B000AF786000BF0C37BD4680BC3E
:10276C00704780B483B000AF786000BF0C37BD46B3
:10277C0080BC704780B483B000AF0023FB710D4B5D
:10278C001B6903F08003002B0DD00A4B0A4A5A60D8
:10279C00084B0A4A5A60074B1B6903F08003002B55
:1027AC0001D00123FB71FB7918460C37BD4680BC68
:1027BC00704700BF0020024023016745AB89EFCD75
:1027CC0080B483B000AF78600B467B80084B00224E
:1027DC00DA61084B1B69074A43F0010313617B68FC
:1027EC007A881A8000BF0C37BD4680BC704700BF8A
:1027FC00D00B00200020024080B483B000AF002337
:10280C007B60234BDB6803F01003002B09D0214BBA
:10281C00DB6943F002031F4AD3617B6843F010036A
:10282C007B601B4BDB6803F00403002B09D0194BB6
:10283C00DB6943F00103174AD3617B6843F004035F
:10284C007B60134BDB6903F00103002B0BD0114BA6
:10285C00DB6943F004030F4AD3610D4BDB690C4A6F
:10286C0023F00103D3617B6840F20112934206D13D
:10287C00074BDB69064A23F00103D36102E0044AEB
:10288C007B68D36000BF0C37BD4680BC704700BF6F
:10289C0000200240D00B002080B483B000AF7860E1
:1028AC000B4B0022DA610B4B1B690A4A43F0020303
:1028BC001361084A7B685361064B1B69054A43F058
:1028CC004003136100BF0C37BD4680BC704700BF8E
:1028DC00D00B00200020024080B48BB000AF786099
:1028EC00396000237B6200233B6269E101227B6A31
:1028FC0002FA03F3FB613B681B68FA691340BB6186
:10290C00BA69FB699A4240F058813B685B689A4A05
:10291C0093425ED0984A934275D8984A934258D0C5
:10292C00964A93426FD8964A934252D0944A934215
:10293C0069D8944A93424CD0924A934263D8924AB3
:10294C00934246D0904A93425DD8122B2AD8122B30
:10295C0059D801A252F823F0DF290008B929000840
:10296C00CB2900080D2A0008132A0008132A000896
:10297C00132A0008132A0008132A0008132A000837
:10298C00132A0008132A0008132A0008132A000827
:10299C00132A0008132A0008132A0008C12900086A
:1029AC00D5290008794A934213D02CE03B68DB68A8
:1029BC003B6229E03B68DB6804333B6224E03B6804
:1029CC00DB6808333B621FE03B68DB680C333B621F
:1029DC001AE03B689B68002B02D104233B6213E096
:1029EC003B689B68012B05D108233B627B68FA6925
:1029FC001A6109E008233B627B68FA695A6103E0BB
:102A0C0000233B6200E000BFBB69FF2B01D87B6851
:102A1C0001E07B6804337B61BB69FF2B02D87B6AC6
:102A2C009B0002E07B6A083B9B003B617B691A6858
:102A3C000F213B6901FA03F3DB431A40396A3B6906
:102A4C0001FA03F31A437B691A603B685B6803F075
:102A5C008053002B00F0B1804D4B9B694C4A43F0E6
:102A6C00010393614A4B9B6903F00103BB60BB6894
:102A7C00484A7B6A9B08023352F82330FB607B6A1E
:102A8C0003F003039B000F2202FA03F3DB43FA6803
:102A9C001340FB607B68404A934213D07B683F4AEB
:102AAC0093420DD07B683E4A934207D07B683D4AE7
:102ABC00934201D1032306E0042304E0022302E045
:102ACC00012300E000237A6A02F003029200934093
:102ADC00FA681343FB602F497B6A9B080233FA6840
:102AEC0041F823203B685B6803F48033002B06D04D
:102AFC002D4B1A682C49BB6913430B6006E02A4B1B
:102B0C001A68BB69DB43284913400B603B685B6860
:102B1C0003F40033002B06D0234B5A682249BB69BF
:102B2C0013434B6006E0204B5A68BB69DB431E49DC
:102B3C0013404B603B685B6803F48013002B06D09A
:102B4C00194B9A681849BB6913438B6006E0164B06
:102B5C009A68BB69DB43144913408B603B685B6824
:102B6C0003F40013002B21D00F4BDA680E49BB691C
:102B7C001343CB6021E000BF000032100000311085
:102B8C000000221000002110000012100000111093
:102B9C00001002400000014000080140000C014000
:102BAC000010014000140140000401400B4BDA6896
:102BBC00BB69DB4309491340CB607B6A01337B6201
:102BCC003B681A687B6A22FA03F3002B7FF48EAE03
:102BDC0000BF00BF2C37BD4680BC704700040140CD
:102BEC0080B483B000AF78600B467B8013467B705B
:102BFC007B78002B03D07A887B681A6103E07B8892
:102C0C001A047B681A6100BF0C37BD4680BC704744
:102C1C0080B485B000AF78600B467B807B68DB6846
:102C2C00FB607A88FB6813401A04FB68D9437B88E5
:102C3C000B401A437B681A6100BF1437BD4680BC39
:102C4C007047000080B500AF064B5B6903F480331E
:102C5C00002B05D000F008F8024B4FF480325A617B
:102C6C0000BF80BD0004014080B400AF00BFBD4672
:102C7C0080BC704780B586B000AF78607B68002B55
:102C8C0001D1012372E27B681B6803F00103002B66
:102C9C0000F08780924B5B6803F00C03042B0CD084
:102CAC008F4B5B6803F00C03082B12D18C4B5B68C9
:102CBC0003F48033B3F5803F0BD1894B1B6803F4CD
:102CCC000033002B6CD07B685B68002B68D1012330
:102CDC004CE27B685B68B3F5803F06D1804B1B6888
:102CEC007F4A43F4803313602EE07B685B68002BD3
:102CFC000CD17B4B1B687A4A23F480331360784BDE
:102D0C001B68774A23F4802313601DE07B685B68A3
:102D1C00B3F5A02F0CD1724B1B68714A43F480237E
:102D2C0013606F4B1B686E4A43F4803313600BE0E7
:102D3C006B4B1B686A4A23F480331360684B1B6827
:102D4C00674A23F4802313607B685B68002B13D0E5
:102D5C00FEF7DEFB386108E0FEF7DAFB02463B6962
:102D6C00D31A642B01D9032300E25D4B1B6803F4D7
:102D7C000033002BF0D014E0FEF7CAFB386108E0FA
:102D8C00FEF7C6FB02463B69D31A642B01D9032319
:102D9C00ECE1534B1B6803F40033002BF0D100E043
:102DAC0000BF7B681B6803F00203002B63D04C4B05
:102DBC005B6803F00C03002B0BD0494B5B6803F0F2
:102DCC000C03082B1CD1464B5B6803F48033002B9F
:102DDC0016D1434B1B6803F00203002B05D07B6814
:102DEC001B69012B01D00123C0E13D4B1B6823F073
:102DFC00F8027B685B69DB00394913430B603AE0EE
:102E0C007B681B69002B20D0364B01221A60FEF721
:102E1C007FFB386108E0FEF77BFB02463B69D31A67
:102E2C00022B01D90323A1E12D4B1B6803F00203F4
:102E3C00002BF0D02A4B1B6823F0F8027B685B69EF
:102E4C00DB00274913430B6015E0264B00221A6068
:102E5C00FEF75EFB386108E0FEF75AFB02463B6961
:102E6C00D31A022B01D9032380E11D4B1B6803F0FD
:102E7C000203002BF0D17B681B6803F00803002BC6
:102E8C003AD07B689B69002B19D0174B01221A6032
:102E9C00FEF73EFB386108E0FEF73AFB02463B6961
:102EAC00D31A022B01D9032360E10D4B5B6A03F0AB
:102EBC000203002BF0D0012000F0D8FA1CE00A4BE2
:102ECC0000221A60FEF724FB38610FE0FEF720FBAE
:102EDC0002463B69D31A022B08D9032346E100BFF3
:102EEC00001002400000424280044242924B5B6A56
:102EFC0003F00203002BE9D17B681B6803F0040389
:102F0C00002B00F0A6800023FB758B4BDB6903F0D4
:102F1C008053002B0DD1884BDB69874A43F08053DB
:102F2C00D361854BDB6903F08053BB60BB68012325
:102F3C00FB75824B1B6803F48073002B18D17F4BFD
:102F4C001B687E4A43F480731360FEF7E1FA386124
:102F5C0008E0FEF7DDFA02463B69D31A642B01D96F
:102F6C00032303E1754B1B6803F48073002BF0D033
:102F7C007B68DB68012B06D16F4B1B6A6E4A43F0F2
:102F8C00010313622DE07B68DB68002B0CD16A4BCC
:102F9C001B6A694A23F001031362674B1B6A664A7A
:102FAC0023F0040313621CE07B68DB68052B0CD157
:102FBC00614B1B6A604A43F0040313625E4B1B6A4D
:102FCC005D4A43F0010313620BE05B4B1B6A5A4AE8
:102FDC0023F001031362584B1B6A574A23F0040376
:102FEC0013627B68DB68002B15D0FEF791FA386111
:102FFC000AE0FEF78DFA02463B69D31A41F2883299
:10300C00934201D90323B1E04B4B1B6A03F002033B
:10301C00002BEED014E0FEF77BFA38610AE0FEF7E5
:10302C0077FA02463B69D31A41F28832934201D9AE
:10303C0003239BE0404B1B6A03F00203002BEED1F1
:10304C00FB7D012B05D13C4BDB693B4A23F08053C4
:10305C00D3617B68DB69002B00F08780364B5B68A3
:10306C0003F00C03082B61D07B68DB69022B46D183
:10307C00334B00221A60FEF74BFA386108E0FEF77A
:10308C0047FA02463B69D31A022B01D903236DE0A0
:10309C00294B1B6803F00073002BF0D17B681B6A73
:1030AC00B3F5803F08D1244B5B6823F400327B6876
:1030BC009B68214913434B601F4B5B6823F47412CC
:1030CC007B68196A7B685B6A0B431B4913434B6033
:1030DC001B4B01221A60FEF71BFA386108E0FEF761
:1030EC0017FA02463B69D31A022B01D903233DE0A0
:1030FC00114B1B6803F00073002BF0D035E0104B24
:10310C0000221A60FEF704FA386108E0FEF700FAB4
:10311C0002463B69D31A022B01D9032326E0064B46
:10312C001B6803F00073002BF0D11EE07B68DB6999
:10313C00012B07D1012319E0001002400070004060
:10314C00600042420B4B5B68FB60FB6803F480320F
:10315C007B681B6A9A4206D1FB6803F470127B6889
:10316C005B6A9A4201D0012300E00023184618370D
:10317C00BD4680BD0010024080B584B000AF7860C1
:10318C0039607B68002B01D10123D0E06A4B1B68AE
:10319C0003F007033A689A4210D9674B1B6823F077
:1031AC00070265493B6813430B60634B1B6803F0D4
:1031BC0007033A689A4201D00123B8E07B681B6888
:1031CC0003F00203002B20D07B681B6803F0040380
:1031DC00002B05D0594B5B68584A43F4E0635360AD
:1031EC007B681B6803F00803002B05D0534B5B680E
:1031FC00524A43F460535360504B5B6823F0F00227
:10320C007B689B684D4913434B607B681B6803F0DC
:10321C000103002B40D07B685B68012B07D1474B27
:10322C001B6803F40033002B15D101237FE07B686E
:10323C005B68022B07D1414B1B6803F00073002B1A
:10324C0009D1012373E03D4B1B6803F00203002BF3
:10325C0001D101236BE0394B5B6823F003027B68DF
:10326C005B68364913434B60FEF752F9F8600AE08D
:10327C00FEF74EF90246FB68D31A41F288329342AC
:10328C0001D9032353E02D4B5B6803F00C027B68E0
:10329C005B689B009A42EBD1274B1B6803F007033A
:1032AC003A689A4210D2244B1B6823F00702224939
:1032BC003B6813430B60204B1B6803F007033A6811
:1032CC009A4201D0012332E07B681B6803F00403AF
:1032DC00002B08D0194B5B6823F4E0627B68DB6839
:1032EC00164913434B607B681B6803F00803002BE3
:1032FC0009D0124B5B6823F460527B681B69DB00BE
:10330C000E4913434B6000F021F802460B4B5B68EF
:10331C001B0903F00F030A49CB5C22FA03F3094A99
:10332C001360094B1B681846FEF7B0F800231846CB
:10333C001037BD4680BD00BF002002400010024087
:10334C00FC500008000000200400002090B48AB05B
:10335C0000AF294B3C1D0FCB84E80F0040F201233A
:10336C003B800023FB610023BB6100237B620023B5
:10337C007B6100233B62214B5B68FB61FB6903F0C3
:10338C000C03042B02D0082B03D02BE01C4B3B620C
:10339C002BE0FB699B0C03F00F0328333B4413F821
:1033AC00243C7B61FB6903F48033002B12D0134B5C
:1033BC005B685B0C03F0010328333B4413F8283C97
:1033CC00BB617B690E4A03FB02F2BB69B2FBF3F3F0
:1033DC007B6204E07B690B4A02FB03F37B627B6A32
:1033EC003B6202E0064B3B6200BF3B6A1846283743
:1033FC00BD4690BC704700BFEC5000080010024066
:10340C0000127A0000093D0080B400AF024B1B682B
:10341C001846BD4680BC70470000002080B500AF48
:10342C00FFF7F2FF0246054B5B681B0A03F007032C
:10343C000349CB5C22FA03F3184680BD001002400E
:10344C000C51000880B500AFFFF7DEFF0246054BBC
:10345C005B68DB0A03F007030349CB5C22FA03F336
:10346C00184680BD001002400C51000880B485B095
:10347C0000AF78600A4B1B680A4AA2FB03235B0A65
:10348C007A6802FB03F3FB6000BFFB685A1EFA600C
:10349C00002BF9D100BF00BF1437BD4680BC70476C
:1034AC0000000020D34D621080B586B000AF78606C
:1034BC0000233B610023FB607B681B6803F0010366
:1034CC00002B7DD00023FB754F4BDB6903F0805341
:1034DC00002B0DD14C4BDB694B4A43F08053D3612D
:1034EC00494BDB6903F08053BB60BB680123FB7560
:1034FC00464B1B6803F48073002B18D1434B1B689D
:10350C00424A43F480731360FEF702F8386108E016
:10351C00FDF7FEFF02463B69D31A642B01D9032346
:10352C006DE03A4B1B6803F48073002BF0D0364BE4
:10353C001B6A03F44073FB60FB68002B2ED07B6886
:10354C005B6803F44073FA689A4227D02E4B1B6ACF
:10355C0023F44073FB602E4B01221A602C4B00228B
:10356C001A60294AFB681362FB6803F00103002B05
:10357C0014D0FDF7CDFF38610AE0FDF7C9FF024614
:10358C003B69D31A41F28832934201D9032336E0C6
:10359C001D4B1B6A03F00203002BEED01A4B1B6A67
:1035AC0023F440727B685B68174913430B62FB7D05
:1035BC00012B05D1144BDB69134A23F08053D361E3
:1035CC007B681B6803F00203002B08D00E4B5B6872
:1035DC0023F440427B689B680B4913434B607B6828
:1035EC001B6803F01003002B08D0074B5B6823F417
:1035FC0080027B68DB68044913434B600023184648
:10360C001837BD4680BD00BF00100240007000405E
:10361C004004424280B485B000AF78607B6893F878
:10362C003D30DBB2012B01D001233AE07B68022252
:10363C0083F83D207B681B68DA687B681B6842F066
:10364C000102DA607B681B68184A93420ED07B68D3
:10365C001B68B3F1804F09D07B681B68144A9342F6
:10366C0004D07B681B68134A934211D17B681B689A
:10367C009B6803F00703FB60FB68062B10D07B688C
:10368C001B681A687B681B6842F001021A6007E02D
:10369C007B681B681A687B681B6842F001021A6021
:1036AC00002318461437BD4680BC7047002C0140DF
:1036BC00000400400008004080B582B000AF786084
:1036CC007B68002B01D1012341E07B6893F83D30EE
:1036DC00DBB2002B06D17B68002283F83C20786893
:1036EC0000F039F87B68022283F83D207B681A6869
:1036FC007B6804331946104600F0BAF97B68012246
:10370C0083F846207B68012283F83E207B680122E7
:10371C0083F83F207B68012283F840207B680122DC
:10372C0083F841207B68012283F842207B680122C8
:10373C0083F843207B68012283F844207B680122B4
:10374C0083F845207B68012283F83D20002318462E
:10375C000837BD4680BD80B483B000AF786000BF31
:10376C000C37BD4680BC704780B582B000AF786026
:10377C007B681B681B6903F00203022B22D17B6858
:10378C001B68DB6803F00203022B1BD17B681B68F0
:10379C006FF002021A617B6801221A777B681B6842
:1037AC009B6903F00303002B03D0786800F045F904
:1037BC0005E0786800F038F9786800F047F97B6824
:1037CC0000221A777B681B681B6903F00403042B27
:1037DC0022D17B681B68DB6803F00403042B1BD12C
:1037EC007B681B686FF004021A617B6802221A77EF
:1037FC007B681B689B6903F44073002B03D07868CB
:10380C0000F01BF905E0786800F00EF9786800F01C
:10381C001DF97B6800221A777B681B681B6903F013
:10382C000803082B22D17B681B68DB6803F00803B4
:10383C00082B1BD17B681B686FF008021A617B6830
:10384C0004221A777B681B68DB6903F00303002BE7
:10385C0003D0786800F0F1F805E0786800F0E4F83F
:10386C00786800F0F3F87B6800221A777B681B6895
:10387C001B6903F01003102B22D17B681B68DB68DB
:10388C0003F01003102B1BD17B681B686FF0100228
:10389C001A617B6808221A777B681B68DB6903F462
:1038AC004073002B03D0786800F0C7F805E0786807
:1038BC0000F0BAF8786800F0C9F87B6800221A7733
:1038CC007B681B681B6903F00103012B0ED17B681D
:1038DC001B68DB6803F00103012B07D17B681B68B5
:1038EC006FF001021A617868FDF742FB7B681B6878
:1038FC001B6903F08003802B0ED17B681B68DB688F
:10390C0003F08003802B07D17B681B686FF080026B
:10391C001A61786800F04EFB7B681B681B6903F02A
:10392C004003402B0ED17B681B68DB6803F040031F
:10393C00402B07D17B681B686FF040021A617868D6
:10394C0000F08DF87B681B681B6903F02003202BAB
:10395C000ED17B681B68DB6803F02003202B07D19A
:10396C007B681B686FF020021A61786800F019FB05
:10397C0000BF0837BD4680BD80B584B000AFF8608D
:10398C00B9607A60FB6893F83C30012B01D10223BB
:10399C0046E0FB68012283F83C207B680C2B39D86D
:1039AC0001A252F823F000BFE9390008213A0008BF
:1039BC00213A0008213A0008F7390008213A00089A
:1039CC00213A0008213A0008053A0008213A00087B
:1039DC00213A0008213A0008133A0008FB681B68DA
:1039EC00B968184600F0A6F815E0FB681B68B968C2
:1039FC00184600F005F90EE0FB681B68B96818461C
:103A0C0000F068F907E0FB681B68B968184600F01D
:103A1C00CBF900E000BFFB68002283F83C200023B8
:103A2C0018461037BD4680BD80B483B000AF7860B7
:103A3C0000BF0C37BD4680BC704780B483B000AF6C
:103A4C00786000BF0C37BD4680BC704780B483B033
:103A5C0000AF786000BF0C37BD4680BC704780B4A7
:103A6C0083B000AF786000BF0C37BD4680BC704798
:103A7C0080B485B000AF786039607B681B68FB60F0
:103A8C007B68294A93420BD07B68B3F1804F07D0F7
:103A9C007B68264A934203D07B68254A934208D11F
:103AAC00FB6823F07003FB603B685B68FA681343A8
:103ABC00FB607B681C4A93420BD07B68B3F1804F50
:103ACC0007D07B68194A934203D07B68184A93420B
:103ADC0008D1FB6823F44073FB603B68DB68FA6831
:103AEC001343FB60FB6823F080023B685B69134364
:103AFC00FB607B68FA681A603B689A687B68DA62DC
:103B0C003B681A687B689A627B68074A934203D1C8
:103B1C003B681A697B681A637B6801225A6100BF93
:103B2C001437BD4680BC7047002C01400004004097
:103B3C000008004080B487B000AF786039607B68C3
:103B4C001B6A23F001027B681A627B681B6A7B612B
:103B5C007B685B683B617B689B69FB60FB6823F05F
:103B6C007003FB60FB6823F00303FB603B681B687E
:103B7C00FA681343FB607B6923F002037B613B68AB
:103B8C009B687A6913437B617B681C4A93420CD116
:103B9C007B6923F008037B613B68DB687A6913431C
:103BAC007B617B6923F004037B617B68134A93423E
:103BBC0011D13B6923F480733B613B6923F400739F
:103BCC003B613B685B693A6913433B613B689B69AA
:103BDC003A6913433B617B683A695A607B68FA68BF
:103BEC009A613B685A687B685A637B687A691A6287
:103BFC0000BF1C37BD4680BC704700BF002C014085
:103C0C0080B487B000AF786039607B681B6A23F0A2
:103C1C0010027B681A627B681B6A7B617B685B683D
:103C2C003B617B689B69FB60FB6823F4E043FB60B2
:103C3C00FB6823F44073FB603B681B681B02FA684B
:103C4C001343FB607B6923F020037B613B689B681B
:103C5C001B017A6913437B617B681D4A93420DD12A
:103C6C007B6923F080037B613B68DB681B017A690D
:103C7C0013437B617B6923F040037B617B68144AAF
:103C8C00934213D13B6923F480633B613B6923F47A
:103C9C0000633B613B685B699B003A6913433B6182
:103CAC003B689B699B003A6913433B617B683A69AB
:103CBC005A607B68FA689A613B685A687B689A63B9
:103CCC007B687A691A6200BF1C37BD4680BC70479E
:103CDC00002C014080B487B000AF786039607B68FD
:103CEC001B6A23F480727B681A627B681B6A7B6197
:103CFC007B685B683B617B68DB69FB60FB6823F07E
:103D0C007003FB60FB6823F00303FB603B681B68DC
:103D1C00FA681343FB607B6923F400737B613B6897
:103D2C009B681B027A6913437B617B681D4A934233
:103D3C000DD17B6923F400637B613B68DB681B025C
:103D4C007A6913437B617B6923F480637B617B68B5
:103D5C00144A934213D13B6923F480533B613B6972
:103D6C0023F400533B613B685B691B013A691343C5
:103D7C003B613B689B691B013A6913433B617B6860
:103D8C003A695A607B68FA68DA613B685A687B6802
:103D9C00DA637B687A691A6200BF1C37BD4680BC47
:103DAC00704700BF002C014080B487B000AF786032
:103DBC0039607B681B6A23F480527B681A627B68CB
:103DCC001B6A3B617B685B687B617B68DB69FB60C2
:103DDC00FB6823F4E043FB60FB6823F44073FB6057
:103DEC003B681B681B02FA681343FB603B6923F4B6
:103DFC0000533B613B689B681B033A6913433B616F
:103E0C007B680F4A934209D17B6923F480437B6121
:103E1C003B685B699B017A6913437B617B687A69B8
:103E2C005A607B68FA68DA613B685A687B681A6486
:103E3C007B683A691A6200BF1C37BD4680BC70476C
:103E4C00002C014080B485B000AF786039607B688D
:103E5C0093F83C30012B01D1022346E07B68012210
:103E6C0083F83C207B68022283F83D207B681B682A
:103E7C005B68FB607B681B689B68BB60FB6823F01E
:103E8C007003FB603B681B68FA681343FB607B683C
:103E9C001B68FA685A607B681B68164A93420ED0FE
:103EAC007B681B68B3F1804F09D07B681B68124A92
:103EBC00934204D07B681B68104A93420CD1BB68B8
:103ECC0023F08003BB603B685B68BA681343BB603C
:103EDC007B681B68BA689A607B68012283F83D2076
:103EEC007B68002283F83C20002318461437BD461B
:103EFC0080BC7047002C01400004004000080040CA
:103F0C0080B485B000AF786039600023FB607B68BB
:103F1C0093F83C30012B01D102233DE07B68012258
:103F2C0083F83C20FB6823F0FF023B68DB681343FB
:103F3C00FB60FB6823F440723B689B681343FB6097
:103F4C00FB6823F480623B685B681343FB60FB688F
:103F5C0023F400623B681B681343FB60FB6823F48B
:103F6C0080523B681B691343FB60FB6823F40052CF
:103F7C003B685B691343FB60FB6823F480423B683E
:103F8C00DB691343FB607B681B68FA685A647B68C7
:103F9C00002283F83C20002318461437BD4680BC11
:103FAC00704780B483B000AF786000BF0C37BD465B
:103FBC0080BC704780B483B000AF786000BF0C3712
:103FCC00BD4680BC704780B582B000AF78607B681E
:103FDC00002B01D101233FE07B6893F83930DBB231
:103FEC00002B06D17B68002283F83820786800F01B
:103FFC0037F87B68242283F839207B681B68DA68E1
:10400C007B681B6822F40052DA60786800F0F4FADE
:10401C007B681B681A697B681B6822F490421A61E2
:10402C007B681B685A697B681B6822F02A025A61FC
:10403C007B681B68DA687B681B6842F40052DA60A4
:10404C007B680022DA637B68202283F839207B6846
:10405C00202283F83A20002318460837BD4680BD3D
:10406C0080B483B000AF786000BF0C37BD4680BC15
:10407C00704780B485B000AFF860B9601346FB8020
:10408C00FB6893F83930DBB2202B30D1BB68002BA6
:10409C0002D0FB88002B01D1012329E0FB6893F8A7
:1040AC003830012B01D1022322E0FB68012283F876
:1040BC003820FB68BA681A62FB68FA889A84FB6835
:1040CC00FA88DA84FB680022DA63FB68212283F821
:1040DC003920FB68002283F83820FB681B68DA68FB
:1040EC00FB681B6842F08002DA60002300E00223C8
:1040FC0018461437BD4680BC704780B485B000AFFD
:10410C00F860B9601346FB80FB6893F83A30DBB279
:10411C00202B40D1BB68002B02D0FB88002B01D197
:10412C00012339E0FB6893F83830012B01D10223CD
:10413C0032E0FB68012283F83820FB68BA689A6287
:10414C00FB68FA889A85FB68FA88DA85FB68002296
:10415C00DA63FB68222283F83A20FB68002283F89A
:10416C003820FB681B68DA68FB681B6842F48072B5
:10417C00DA60FB681B685A69FB681B6842F0010235
:10418C005A61FB681B68DA68FB681B6842F0200206
:10419C00DA60002300E0022318461437BD4680BCC9
:1041AC007047000080B588B000AF78607B681B68F2
:1041BC001B68FB617B681B68DB68BB617B681B68E9
:1041CC005B697B6100233B610023FB60FB6903F0AF
:1041DC000F033B613B69002B0DD1FB6903F02003FE
:1041EC00002B08D0BB6903F02003002B03D07868A8
:1041FC0000F082F9D0E03B69002B00F0B0807B69C5
:10420C0003F00103002B05D1BB6903F49073002B61
:10421C0000F0A580FB6903F00103002B0AD0BB69F9
:10422C0003F48073002B05D07B68DB6B43F0010239
:10423C007B68DA63FB6903F00403002B0AD07B690B
:10424C0003F00103002B05D07B68DB6B43F002020B
:10425C007B68DA63FB6903F00203002B0AD07B69ED
:10426C0003F00103002B05D07B68DB6B43F00402E9
:10427C007B68DA63FB6903F00803002B0FD0BB6982
:10428C0003F02003002B04D17B6903F00103002B06
:10429C0005D07B68DB6B43F008027B68DA637B68D4
:1042AC00DB6B002B77D0FB6903F02003002B07D0CE
:1042BC00BB6903F02003002B02D0786800F01CF9D6
:1042CC007B681B685B6903F04003002B14BF012360
:1042DC000023DBB2FB607B68DB6B03F00803002B75
:1042EC0002D1FB68002B31D0786800F06DF87B6848
:1042FC001B685B6903F04003002B23D07B681B68B1
:10430C005A697B681B6822F040025A617B685B6BC0
:10431C00002B13D07B685B6B214A5A637B685B6B09
:10432C001846FDF787FF0346002B16D07B685B6BA6
:10433C005B6B7A68526B104698470EE0786800F019
:10434C003AF80AE0786800F036F806E0786800F091
:10435C0032F87B680022DA631DE000BF1BE0FB69CA
:10436C0003F08003002B08D0BB6903F08003002B03
:10437C0003D0786800F059F80EE0FB6903F04003B5
:10438C00002B09D0BB6903F04003002B04D07868E4
:10439C0000F09AF800E000BF2037BD4680BD00BF9A
:1043AC000F44000880B483B000AF786000BF0C37B6
:1043BC00BD4680BC704780B483B000AF786000BF4E
:1043CC000C37BD4680BC704780B483B000AF7860BA
:1043DC007B681B68DA687B681B6822F49072DA6071
:1043EC007B681B685A697B681B6822F001025A6162
:1043FC007B68202283F83A2000BF0C37BD4680BC76
:10440C00704780B584B000AF78607B685B6AFB60F6
:10441C00FB680022DA85FB680022DA84F868FFF773
:10442C00CAFF00BF1037BD4680BD80B485B000AF59
:10443C0078607B6893F83930DBB2212B3ED17B68F6
:10444C009B68B3F5805F14D17B681B69002B10D17E
:10445C007B681B6AFB60FB681B881A467B681B68C1
:10446C00C2F308025A607B681B6A9A1C7B681A624A
:10447C0008E07B681B6A591C7A6811621A787B68A1
:10448C001B685A607B68DB8C9BB2013B9BB27A68E1
:10449C001946D184002B0FD17B681B68DA687B68C6
:1044AC001B6822F08002DA607B681B68DA687B6824
:1044BC001B6842F04002DA60002300E00223184639
:1044CC001437BD4680BC704780B582B000AF7860B1
:1044DC007B681B68DA687B681B6822F04002DA6034
:1044EC007B68202283F839207868FFF75BFF002374
:1044FC0018460837BD4680BD80B584B000AF7860E3
:10450C007B6893F83A30DBB2222B70D17B689B68C6
:10451C00B3F5805F17D17B681B69002B13D1002387
:10452C00FB607B689B6ABB607B681B685B689BB2AB
:10453C00C3F308039AB2BB681A807B689B6A9A1C07
:10454C007B689A6226E07B689B6AFB600023BB60F9
:10455C007B689B68B3F5805F07D07B689B68002BFA
:10456C000AD17B681B69002B06D17B681B685B68D2
:10457C00DAB2FB681A7008E07B681B685B68DBB218
:10458C0003F07F03DAB2FB681A707B689B6A5A1CD3
:10459C007B689A627B68DB8D9BB2013B9BB27A682D
:1045AC001946D185002B20D17B681B68DA687B68A3
:1045BC001B6822F02002DA607B681B68DA687B6873
:1045CC001B6822F48072DA607B681B685A697B680E
:1045DC001B6822F001025A617B68202283F83A2082
:1045EC007868FCF711FE002302E0002300E00223B0
:1045FC0018461037BD4680BD80B584B000AF7860DA
:10460C007B681B681B6923F440517B68DA687B6804
:10461C001B680A431A617B689A687B681B691A439A
:10462C007B685B691343BB607B681B68DB6823F4A6
:10463C00B05323F00C037A681268B9680B43D3604B
:10464C007B681B685B6923F440717B689A697B68A3
:10465C001B680A435A617B681B682C4A934203D13E
:10466C00FEF7F0FEF86002E0FEF7D8FEF860FA689C
:10467C0013469B0013449A001A447B685B689B00AA
:10468C00B2FBF3F3224AA2FB03235B091901FA687C
:10469C0013469B0013449A001A447B685B689B008A
:1046AC00B2FBF3F21A4BA3FB02035B09642000FB81
:1046BC0003F3D31A1B013233154AA2FB03235B0904
:1046CC0003F0F0031944FA6813469B0013449A0054
:1046DC001A447B685B689B00B2FBF3F20C4BA3FBA8
:1046EC0002035B09642000FB03F3D31A1B01323372
:1046FC00074AA2FB03235B0903F00F027B681B68CC
:10470C000A449A6000BF1037BD4680BD0038014096
:10471C001F85EB51002103E00B4B5B5843500431D8
:10472C000A480B4B42189A42F6D30A4A02E000237D
:10473C0042F8043B084B9A42F9D3FCF77DFB00F09E
:10474C0015F8FCF7FDF970475053000800000020E5
:10475C007000002070000020000C0020FEE700001C
:10476C00014B1868704700BF0C00002070B5002684
:10477C000C4D0D4C641BA410A64209D100F09CFCFE
:10478C0000260A4D0A4C641BA410A64205D170BD2C
:10479C0055F8043B98470136EEE755F8043B98472B
:1047AC000136F2E748530008485300084853000804
:1047BC004C53000803460244934200D1704703F85F
:1047CC00011BF9E70EB46FF0004100B59CB01DABB6
:1047DC0002900690079104910848094953F8042B5C
:1047EC000591006802A9019300F068F80022029B71
:1047FC001A701CB05DF804EB03B070470C0000207D
:10480C000802FFFF2DE9F0478E6882469E420C4657
:10481C0090461F4638D88A8912F4906F32D025689A
:10482C0009690133A5EB010965694B4405EB4505A5
:10483C0005EBD5756D109D4238BF1D46530531D51E
:10484C00294600F06FFB064650B90C234FF0FF30A1
:10485C00CAF80030A38943F04003A381BDE8F08778
:10486C004A46216900F0CEFAA38923F4906343F001
:10487C008003A38126614E4426603E466561A5EB0C
:10488C000905A560BE4200D93E4632464146206825
:10489C0000F0C6FAA36800209B1BA3602368334476
:1048AC002360DBE72A4600F0B1FB06460028E1D185
:1048BC005046216900F0CEFAC7E700002DE9F04F11
:1048CC0098468B8907461B060D4614469DB00ED59F
:1048DC000B6963B9402100F025FB2860286120B9E1
:1048EC000C233B604FF0FF30D1E040236B61002381
:1048FC00099320238DF8293030234FF00109CDF88E
:10490C000C80DFF8A4818DF82A3023469A4613F8E0
:10491C00012B0AB1252AF9D1BAEB040B0BD05B465B
:10492C00224629463846FFF76DFF013000F0AA8079
:10493C00099A5A4409929AF80030002B00F0A28090
:10494C0000234FF0FF32CDE905230AF1010A04934D
:10495C0007938DF853301A935446052214F8011B13
:10496C00514800F041FA049AD8B9D00644BF20232C
:10497C008DF85330110744BF2B238DF853309AF820
:10498C0000302A2B15D0544600204FF00A0C079A01
:10499C00214611F8013B303B092B4ED9B0B107929F
:1049AC0014E0A0EB080309FA03F31343A2460493A3
:1049BC00D2E7039B191D1B680391002BBBBF5B4205
:1049CC0042F0020207930793B8BF049223782E2B70
:1049DC000CD163782A2B35D1039B02341A1D1B682A
:1049EC000392002BB8BF4FF0FF330593DFF8BCA048
:1049FC0003225046217800F0F7F940B14023A0EB98
:104A0C000A0003FA00F0049B01340343049314F8E6
:104A1C00011B062226488DF8281000F0E5F9002825
:104A2C0038D0244B1BBB039B073323F007030833FD
:104A3C000393099B3344099367E70C4601200CFB55
:104A4C000232A5E700234FF00A0C194601340593F6
:104A5C00204610F8012B303A092A03D9002BC5D077
:104A6C000591C3E7044601230CFB0121F0E703ABDE
:104A7C0000932A463846104B04A9AFF30080421C21
:104A8C000646D6D1AB895B063FF52CAF09981DB015
:104A9C00BDE8F08F03AB00932A463846064B04A9B9
:104AAC0000F07CF8EBE700BF145300081A53000821
:104ABC001E53000800000000114800082DE9F047C3
:104ACC00164699468A680B6907469342B8BF134647
:104ADC00336091F843200C46DDF820800AB1013395
:104AEC0033602368990642BF33680233336025680C
:104AFC0015F0060506D104F1190AE36832689B1A11
:104B0C00AB4228DC94F84320131E226818BF012303
:104B1C0092062DD44946384604F14302C047013071
:104B2C0020D02368E56803F00603042B18BF00258A
:104B3C0032684FF00006A36808BFAD1A226908BF9F
:104B4C0025EAE5759342C4BF9B1AED181A34B54299
:104B5C001AD1002008E00123524649463846C04786
:104B6C00013003D14FF0FF30BDE8F0870135C4E7C9
:104B7C003020E11881F843005A1C94F84510224467
:104B8C00023382F84310C5E70123224649463846D2
:104B9C00C0470130E6D00136D9E700002DE9FF47C8
:104BAC000F7E9146782F80460C469A460C9D01F15B
:104BBC00430207D8622F0AD8002F00F0D980582F53
:104BCC0000F0A48004F1420584F842703AE0A7F1A9
:104BDC006303152BF6D801A151F823F0414C0008C2
:104BEC00554C0008D14B0008D14B0008D14B0008A4
:104BFC00D14B0008554C0008D14B0008D14B000894
:104C0C00D14B0008D14B0008634D0008854C0008BF
:104C1C00454D0008D14B0008D14B0008854D0008CC
:104C2C00D14B0008854C0008D14B0008D14B000833
:104C3C004D4D00082B681A1D1B682A6004F14205B3
:104C4C0084F842300123A4E020682968060601F1AB
:104C5C0004030AD50E682B60002E03DA2D2376424E
:104C6C0084F843300A235E4819E00E6810F0400FB8
:104C7C002B6018BF36B2EFE72B682068191D29602E
:104C8C00010601D51E6802E04606FBD51E886F2F73
:104C9C000CBF08230A235248002184F8431065688E
:104CAC00002DA8BF2168A560A4BF21F004012160DC
:104CBC000EB9002D4DD01546B6FBF3F103FB116771
:104CCC00C75D05F8017D3746BB420E46F4D9082B6B
:104CDC000BD12368DE0708D5236961689942DEBFD2
:104CEC00302305F8013C05F1FF35521B22614B4680
:104CFC0021464046CDF800A003AAFFF7DFFE0130A5
:104D0C004CD14FF0FF3004B0BDE8F087344881F847
:104D1C0045702968236851F8046B29601D0614D569
:104D2C00DF0744BF43F0200323601EB9236823F040
:104D3C00200323601023AFE7236843F02003236094
:104D4C007823284884F84530E3E7590648BFB6B2C3
:104D5C00E6E71546BBE72B682668181D61692860D5
:104D6C0035061B6801D5196002E07006FBD5198069
:104D7C00002315462361BAE72B6800211A1D2A600F
:104D8C001D686268284600F02FF808B1401B60606F
:104D9C0063682361002384F84330A8E72A46494618
:104DAC0040462369D0470130ABD023689B0713D40E
:104DBC00E068039B9842B8BF1846A4E7012332462B
:104DCC0049464046D04701309BD00135E3680399F2
:104DDC005B1AAB42F2DCEBE7002504F11906F5E7B0
:104DEC002553000836530008034610B5C9B20244D7
:104DFC009342184601D1002003E0047801338C4221
:104E0C00F6D110BD0A44914200F1FF3300D1704736
:104E1C0010B511F8014B914203F8014FF9D110BDB7
:104E2C00884210B501EB020402D98442234607D80C
:104E3C00431EA14208D011F8012B03F8012FF8E70B
:104E4C00014602448A4200D110BD13F8014D02F80C
:104E5C00014DF7E738B50546002940D051F8043C20
:104E6C000C1F002BB8BFE41800F010F91C4A136893
:104E7C0033B9636014602846BDE8384000F00CB9C3
:104E8C00A34208D9206821188B4201BF19685B68BE
:104E9C0009182160EDE71A465B680BB1A342FAD9F9
:104EAC0011685018A0420BD120680144501883425D
:104EBC001160E0D118685B68014411605360DAE757
:104ECC0002D90C232B60D6E7206821188B4201BF36
:104EDC0019685B680918216063605460CBE738BDC2
:104EEC00F00B002070B50E4E0C463168054611B91A
:104EFC0000F0BCF830602146284600F0B7F8431C9F
:104F0C000AD0C41C24F00304A04207D0211A28465E
:104F1C0000F0ACF8013001D14FF0FF34204670BDE9
:104F2C00F40B00202DE9F041CD1C25F003050835CC
:104F3C000C2D38BF0C25002D074601DBA94205D9E5
:104F4C000C2300263B603046BDE8F0812E4E00F06D
:104F5C009DF833681C4634BB29463846FFF7C2FF20
:104F6C00431C04464DD134682646002E40D123689C
:104F7C003146384604EB030800F078F880453AD106
:104F8C00216803356D1A25F0030508350C2D38BF43
:104F9C000C2538462946FFF7A5FF01302BD0236896
:104FAC002B4423600EE02268521B1ED40B2A16D908
:104FBC006119A342256018BF5960636808BF31604E
:104FCC0062514B60384604F10B0600F065F826F090
:104FDC000706231DF21AB6D09B1BA350B3E76268D9
:104FEC00A3420CBF32605A60ECE723466468B2E718
:104FFC0034467668B9E70C2338463B6000F04CF831
:10500C00A1E72560DEE700BFF00B00202DE9F041A1
:10501C00804614460E4621B91146BDE8F041FFF713
:10502C0081BF2AB9FFF716FF25462846BDE8F08157
:10503C0000F038F88442074602D8B4EB500F12D86F
:10504C0021464046FFF76EFF05460028EDD0BC42D6
:10505C002246314628BF3A46FFF7D4FE3146404639
:10506C00FFF7F8FEE1E73546DFE7000038B500232F
:10507C00054D044608462B60FBF7B2FE431C02D1DB
:10508C002B6803B1236038BDF80B0020014800F0F9
:10509C0011B800BFFC0B0020014800F00CB800BF99
:1050AC00FC0B002051F8043C181F002BBCBF0B5804
:1050BC00C018704770477047F8B500BFF8BC08BC03
:1050CC009E467047F8B500BFF8BC08BC9E467047BA
:1050DC00253034642C0000007C0000000A0D0A000E
:1050EC0002030405060708090A0B0C0D0E0F10101D
:1050FC00000000000000000001020304060708097C
:10510C0000000000010203040000C1C081C1400185
:10511C0001C3C003800241C201C6C006800741C75B
:10512C000005C1C581C4400401CCC00C800D41CD2B
:10513C00000FC1CF81CE400E000AC1CA81CB400BFB
:10514C0001C9C009800841C801D8C018801941D9CB
:10515C00001BC1DB81DA401A001EC1DE81DF401F5B
:10516C0001DDC01D801C41DC0014C1D481D540156B
:10517C0001D7C017801641D601D2C012801341D37B
:10518C000011C1D181D0401001F0C030803141F10B
:10519C000033C1F381F240320036C1F681F740375B
:1051AC0001F5C035803441F4003CC1FC81FD403D2B
:1051BC0001FFC03F803E41FE01FAC03A803B41FBFB
:1051CC000039C1F981F840380028C1E881E940294B
:1051DC0001EBC02B802A41EA01EEC02E802F41EF5B
:1051EC00002DC1ED81EC402C01E4C024802541E56B
:1051FC000027C1E781E640260022C1E281E340237B
:10520C0001E1C021802041E001A0C060806141A18A
:10521C000063C1A381A240620066C1A681A740675A
:10522C0001A5C065806441A4006CC1AC81AD406D2A
:10523C0001AFC06F806E41AE01AAC06A806B41ABFA
:10524C000069C1A981A840680078C1B881B94079CA
:10525C0001BBC07B807A41BA01BEC07E807F41BF5A
:10526C00007DC1BD81BC407C01B4C074807541B56A
:10527C000077C1B781B640760072C1B281B340737A
:10528C0001B1C071807041B00050C190819140510A
:10529C000193C053805241920196C056805741975A
:1052AC000055C19581944054019CC05C805D419D2A
:1052BC00005FC19F819E405E005AC19A819B405BFA
:1052CC000199C059805841980188C048804941894A
:1052DC00004BC18B818A404A004EC18E818F404F5A
:1052EC00018DC04D804C418C0044C184818540456A
:1052FC000187C047804641860182C042804341837A
:10530C000041C18181804040232D302B2000686CEE
:10531C004C006566674546470030313233343536CC
:10532C003738394142434445460030313233343505
:0C533C0036373839616263646566000032
:045348003101000827
:04534C000D01000847
:105350000024F400100000000100000010000020F4
:10536000000000000000000000000000000000003D
:10537000000000000000000000000000000000002D
:10538000000000000000000000000000000000001D
:10539000000000000000000000000000000000000D
:1053A00000000000000000000000000000000000FD
:1053B00000000000000000000000000000000000ED
:040000050800472187
:00000001FF
